03007042026RedecardExtrato de Movimentacao FinanceiraMATEUS FOOD           000061102737762DIARIO         V4.00 - 05/2023 EEFI
032102737762MATEUS FOOD           
0341027379750606655265307042026000000000030218C341004525000009568600504202602653049407032026E100000000003051900000000000030101/0107102737975
0341027379750606690218707042026000000000958790C3410045250000095686005042026035232028070320263100000000096866700000000000987701/0107102737975
0341027379750606628231207042026000000001084221C3410045250000095686005042026044732153070320261100000000109517300000000001095201/0107102737975
0341027379750609215996607042026000000000065261C341004525000009568600504202600393296602042026E100000000006597300000000000071201/0107102737975
0341027379750609252222607042026000000000006809C3410045250000095686005042026013030632020420263100000000000688300000000000007401/0107102737975
0341027379750609313435107042026000000000054091C341004525000009568600504202602723198303042026E100000000005468100000000000059001/0107102737975
0341027379750609488676807042026000000000019706C341004525000009568600504202605153027704042026E100000000001992100000000000021501/0107102737975
0341027379750609553689807042026000000000004918C341004525000009568600504202606402959005042026E100000000000497200000000000005401/0107102737975
0341027379750603575728907042026000000000036260C341004525000009568600504202608124918404022026E200000000007341300000000000089502/0207102737975
0341027379750603560710207042026000000000737635C3410045250000095686005042026013149231040220261200000000149743100000000002216402/0207102737975
0341027379750603536781207042026000000000240497C3410045250000095686005042026095049102040220263200000000048707900000000000608902/0207102737975
0341027379750606648475807042026000000000005346C341004525000009568600504202607494963307032026E200000000001082500000000000013201/0207102737975
0341027379750606607478307042026000000000176958C3410045250000095686005042026088249713070320263200000000035840000000000000448101/0207102737975
0341027379750606627492407042026000000000417586C3410045250000095686005042026005849039070320261200000000084772100000000001254601/0207102737975
0341027379750606634771307042026000000000017396C341004525000009568600504202607134915207032026X200000000003513300000000000034101/0207102737975
037102737975       07042026000000003855692 341004525000009568600704202600000000000000000000000
0501027377620000150000000038556920000000000000000000000000000000000000000000000000000000000000
0520001000020102737762001500000000385569200000000000000000000000000000000000000000000000000000000000
