03006042026RedecardExtrato de Movimentacao FinanceiraMATEUS FOOD           000060102737762DIARIO         V4.00 - 05/2023 EEFI
032102737762MATEUS FOOD           
0341027379750606256892606042026000000000091897C341004525000009568600104202602953186403032026E100000000009281700000000000092001/0107102737975
0341027379750606229119606042026000000000556439C3410045250000095686001042026038030265030320263100000000056217200000000000573301/0107102737975
0341027379750606207205906042026000000000706022C3410045250000095686001042026047329246030320261100000000071315400000000000713201/0107102737975
0341027379750606319879606042026000000000178689C341004525000009568600104202605313004604032026E100000000018047500000000000178601/0107102737975
0341027379750606371804806042026000000000002161C3410045250000095686001042026061631972040320263100000000000218300000000000002201/0107102737975
0341027379750606371804706042026000000000573163C3410045250000095686001042026061631971040320263100000000057906700000000000590401/0107102737975
0341027379750606350840106042026000000001459232C3410045250000095686001042026071130054040320261100000000147397400000000001474201/0107102737975
0341027379750606438847406042026000000000827147C3410045250000095686001042026095232011050320261100000000083550200000000000835501/0107102737975
0341027379750606461473306042026000000000027396C341004525000009568600104202607702980405032026E100000000002767000000000000027401/0107102737975
0341027379750606496212006042026000000000477124C3410045250000095686001042026085729177050320263100000000048203800000000000491401/0107102737975
0341027379750606496212106042026000000000007361C3410045250000095686001042026085729178050320263100000000000743700000000000007601/0107102737975
0341027379750606445088206042026000000000000759C341004525000009568600104202607292995305032026X100000000000076500000000000000601/0107102737975
0341027379750606505745606042026000000000088084C341004525000009568600104202600143045606032026E100000000008896400000000000088001/0107102737975
0341027379750606581556606042026000000000944672C3410045250000095686001042026020329371060320263100000000095440900000000000973701/0107102737975
0341027379750606543421206042026000000001254733C3410045250000095686001042026010732017060320261100000000126740900000000001267601/0107102737975
0341027379750606543421306042026000000000043319C3410045250000095686001042026010732018060320261100000000004375700000000000043801/0107102737975
0341027379750608134053306042026000000000004865C3410045250000095686001042026068730728220320263100000000000500000000000000013501/0107102737975
0341027379750609132935106042026000000000010231C341004525000009568600104202607933218501042026E100000000001034300000000000011201/0107102737975
0341027379750603154703706042026000000000055117C341004525000009568600104202606414969931012026E200000000011159400000000000136202/0207102737975
0341027379750603144373606042026000000000182128C3410045250000095686001042026093349573310120263200000000036887100000000000461102/0207102737975
0341027379750603182563206042026000000000257051C3410045250000095686001042026079649991310120261200000000052182500000000000772202/0207102737975
0341027379750603287942806042026000000000001230C341004525000009568600104202609574907801022026E200000000000249000000000000003002/0207102737975
0341027379750603222797606042026000000000184318C3410045250000095686001042026004749991010220261200000000037417500000000000553802/0207102737975
0341027379750603205244106042026000000000240728C3410045250000095686001042026099749502010220263200000000048754800000000000609302/0207102737975
0341027379750603352069006042026000000000001248C341004525000009568600104202600904954302022026E200000000000252600000000000003102/0207102737975
0341027379750603334865706042026000000000416479C3410045250000095686001042026022349600020220263200000000084350100000000001054602/0207102737975
0341027379750603314504606042026000000000571267C3410045250000095686001042026039549774020220261200000000115969100000000001716302/0207102737975
0341027379750603407498006042026000000000130909C341004525000009568600104202604464926703022026E200000000026505100000000000323402/0207102737975
0341027379750603468272606042026000000000312388C3410045250000095686001042026058249915030220263200000000063267800000000000790902/0207102737975
0341027379750603449467106042026000000000411465C3410045250000095686001042026076049860030220261200000000083528900000000001236502/0207102737975
0341027379750606249668006042026000000000486693C3410045250000095686001042026055649790030320261200000000098800800000000001462201/0207102737975
0341027379750606214841106042026000000000056058C341004525000009568600104202602424904103032026E200000000011350100000000000138501/0207102737975
0341027379750606227737406042026000000000369363C3410045250000095686001042026037849127030320263200000000074807800000000000935101/0207102737975
0341027379750606365734706042026000000000088386C341004525000009568600104202606084983404032026E200000000017895400000000000218401/0207102737975
0341027379750606370198606042026000000000550435C3410045250000095686001042026074549375040320263200000000111481300000000001393401/0207102737975
0341027379750606352327206042026000000000712705C3410045250000095686001042026092649538040320261200000000144681700000000002141201/0207102737975
0341027379750606453322006042026000000000061204C341004525000009568600104202609794987805032026E200000000012391600000000000151201/0207102737975
0341027379750606452685706042026000000000697782C3410045250000095686001042026011849656050320263200000000141323100000000001766701/0207102737975
0341027379750606434991106042026000000000563717C3410045250000095686001042026030149237050320261200000000114437800000000001693701/0207102737975
0341027379750606501466506042026000000000043355C341004525000009568600104202603584922106032026E200000000008778100000000000107101/0207102737975
0341027379750606551965806042026000000000460743C3410045250000095686001042026069449702060320263200000000093314500000000001166401/0207102737975
0341027379750606582952106042026000000000807601C3410045250000095686001042026053849243060320261200000000163945900000000002426601/0207102737975
037102737975       06042026000000014915664 341004525000009568600604202600000000000000000000000
045104832266260917637490104202600000000000049020POS-INATIV/CONEC/PIN        000000000000000000000000000000000000      00000000000000000118013200000000104832266               0000000000000000000000003202600000000000049005042026               42COMPENSADO NO RESUMO        10020000000000000000
0501027377620000420000000149156640000000000000000000000000000000000000000000000000000000000000
0520001000048102737762004200000001491566400000000000000000000000000000000000000000000000000000000000
