00202042026REDECARDEXTRATO DE MOVIMENTO DE VENDASMATEUS FOOD           000056102737762DIARIO         V3.00 - 05/2023 EEVC
004102737762MATEUS FOOD           
01010273797500524993834104525000009568600104202600041000000001080218000000000000000000000000000000000000000016636000000001063582040520263
0121027379750052499380104202600000000000000000008475000000000000000470749XXXXXX326500002000336085128             000000000000131674386084743                                                                3000000000008344000000000004172000000000004172PV201661BR 3000000000000000000000000000131000
0121027379750052499380104202600000000000000000011147000000000000000480625XXXXXX148200002000337042674             000000000000172161367094327                                                                3000000000010975000000000005488000000000005487PV201661BR 3000000000000000000000000000172000
0121027379750052499380104202600000000000000000013301000000000000000423073XXXXXX556500002000337107120             000000000000205258396095152                                                                3000000000013096000000000006548000000000006548PV201661BR 3000000000000000000000000000205000
0121027379750052499380104202600000000000000000020524000000000000000485464XXXXXX738800002000337570492             000000000000316295465101124                                                                3000000000020208000000000010104000000000010104PV201661BR 3000000000000000000000000000316000
0121027379750052499380104202600000000000000000017535000000000000000421924XXXXXX790000002000337711068             000000000000270344716102104                                                                3000000000017265000000000008633000000000008632PV201661BR 3000000000000000000000000000270000
0121027379750052499380104202600000000000000000014108000000000000000498408XXXXXX539600002000338822896             000000000000217615658111150                                                                3000000000013891000000000006945000000000006946PV201661BR 3000000000000000000000000000217000
0121027379750052499380104202600000000000000000029485000000000000000498408XXXXXX471600002000339408116             000000000000454710995112829                                                                3000000000029031000000000014516000000000014515PV201661BR 3000000000000000000000000000454000
0121027379750052499380104202600000000000000000047563000000000000000470749XXXXXX247300002000339643438             000000000000732643537120434                                                                3000000000046831000000000023416000000000023415PV201661BR 3000000000000000000000000000732000
0121027379750052499380104202600000000000000000004648000000000000000498401XXXXXX270100002000343018646             000000000000072743997143105                                                                3000000000004576000000000002288000000000002288PV201661BR 3000000000000000000000000000072000
0121027379750052499380104202600000000000000000003808000000000000000428267XXXXXX803600002000343089374             000000000000059011785144503                                                                3000000000003749000000000001874000000000001875PV201661BR 3000000000000000000000000000059000
0121027379750052499380104202600000000000000000027572000000000000000474525XXXXXX089800002000346061428             000000000000425424650170531                                                                3000000000027147000000000013573000000000013574PV201661BR 3000000000000000000000000000425000
0121027379750052499380104202600000000000000000003386000000000000000485464XXXXXX738800002000347041828             000000000000052837132174953                                                                3000000000003334000000000001667000000000001667PV201661BR 3000000000000000000000000000052000
0121027379750052499380104202600000000000000000088034000000000000000456347XXXXXX644400002000347055650             000000000001356587494174800                                                                3000000000086678000000000043339000000000043339PV201661BR 3000000000000000000000000001356000
0121027379750052499380104202600000000000000000008824000000000000000498406XXXXXX222800002000347379694             000000000000136898670180008                                                                3000000000008688000000000004344000000000004344PV201661BR 3000000000000000000000000000136000
0121027379750052499380104202600000000000000000018752000000000000000473896XXXXXX289000002000347543562             000000000000289922001180407                                                                3000000000018463000000000009231000000000009232PV201661BR 3000000000000000000000000000289000
0121027379750052499380104202600000000000000000009007000000000000000485464XXXXXX849100002000349239248             000000000000139250692190453                                                                3000000000008868000000000004434000000000004434PV201661BR 3000000000000000000000000000139000
0121027379750052499380104202600000000000000000300000000000000000000417400XXXXXX897700002000349760384             000000000004620VY5TFY191833                                                                3000000000295380000000000147690000000000147690PV201661BR 3000000000000000000000000004620000
0121027379750052499380104202600000000000000000009045000000000000000417400XXXXXX410600002000350024776             00000000000013951UKPY193247                                                                3000000000008906000000000004453000000000004453PV201661BR 3000000000000000000000000000139000
0121027379750052499380104202600000000000000000007643000000000000000407838XXXXXX991700002000502608932             000000000000118141028091316                                                                3000000000007525000000000003763000000000003762PV201661BR 3000000000000000000000000000118000
0121027379750052499380104202600000000000000000011286000000000000000400634XXXXXX166500002000503390614             000000000000174028088094323                                                                3000000000011112000000000005556000000000005556PV201661BR 3000000000000000000000000000174000
0121027379750052499380104202600000000000000000015745000000000000000406441XXXXXX116300002000503520668             000000000000242514618094502                                                                3000000000015503000000000007752000000000007751PV201661BR 3000000000000000000000000000242000
0121027379750052499380104202600000000000000000034372000000000000000499817XXXXXX146100002000503725176             000000000000529UPEFMS101700                                                                3000000000033843000000000016921000000000016922PV201661BR 3000000000000000000000000000529000
0121027379750052499380104202600000000000000000009829000000000000000498442XXXXXX867200002000504756904             000000000000151573783110425                                                                3000000000009678000000000004839000000000004839PV201661BR 3000000000000000000000000000151000
0121027379750052499380104202600000000000000000004938000000000000000403792XXXXXX077200002000505466096             000000000000076694146112535                                                                3000000000004862000000000002431000000000002431PV201661BR 3000000000000000000000000000076000
0121027379750052499380104202600000000000000000010594000000000000000417400XXXXXX452900002000505708222             000000000000163LSBQ3E114757                                                                3000000000010431000000000005215000000000005216PV201661BR 3000000000000000000000000000163000
0121027379750052499380104202600000000000000000066090000000000000000498442XXXXXX895900002000505765428             000000000001018927189120404                                                                3000000000065072000000000032536000000000032536PV201661BR 3000000000000000000000000001018000
0121027379750052499380104202600000000000000000016170000000000000000498431XXXXXX420700002000506381632             000000000000249288552123111                                                                3000000000015921000000000007960000000000007961PV201661BR 3000000000000000000000000000249000
0121027379750052499380104202600000000000000000012544000000000000000449325XXXXXX020300002000506413274             000000000000193281771122816                                                                3000000000012351000000000006175000000000006176PV201661BR 3000000000000000000000000000193000
0121027379750052499380104202600000000000000000006368000000000000000449325XXXXXX020300002000506588840             000000000000098355871123557                                                                3000000000006270000000000003135000000000003135PV201661BR 3000000000000000000000000000098000
0121027379750052499380104202600000000000000000007400000000000000000458919XXXXXX755300002000507343158             000000000000114848681131419                                                                3000000000007286000000000003643000000000003643PV201661BR 3000000000000000000000000000114000
0121027379750052499380104202600000000000000000006475000000000000000422463XXXXXX004700002000509233460             000000000000100024370150429                                                                3000000000006375000000000003188000000000003187PV201661BR 3000000000000000000000000000100000
0121027379750052499380104202600000000000000000035560000000000000000466200XXXXXX114300002000509436418             000000000000548591906145617                                                                3000000000035012000000000017506000000000017506PV201661BR 3000000000000000000000000000548000
0121027379750052499380104202600000000000000000036949000000000000000499817XXXXXX285900002000509910040             000000000000569FCGXME151525                                                                3000000000036380000000000018190000000000018190PV201661BR 3000000000000000000000000000569000
0121027379750052499380104202600000000000000000011900000000000000000485464XXXXXX093600002000511452670             000000000000183406073163833                                                                3000000000011717000000000005858000000000005859PV201661BR 3000000000000000000000000000183000
0121027379750052499380104202600000000000000000012271000000000000000422463XXXXXX702500002000511578598             000000000000189095040164403                                                                3000000000012082000000000006041000000000006041PV201661BR 3000000000000000000000000000189000
0121027379750052499380104202600000000000000000008643000000000000000485464XXXXXX934600002000511896884             000000000000133535835170046                                                                3000000000008510000000000004255000000000004255PV201661BR 3000000000000000000000000000133000
0121027379750052499380104202600000000000000000007609000000000000000458919XXXXXX194900002000513750314             000000000000117709490181224                                                                3000000000007492000000000003746000000000003746PV201661BR 3000000000000000000000000000117000
0121027379750052499380104202600000000000000000030000000000000000000410863XXXXXX835500002000514262848             000000000000462360978183608                                                                3000000000029538000000000014769000000000014769PV201661BR 3000000000000000000000000000462000
0121027379750052499380104202600000000000000000012037000000000000000498407XXXXXX834400002000514695506             000000000000185222853185917                                                                3000000000011852000000000005926000000000005926PV201661BR 3000000000000000000000000000185000
0121027379750052499380104202600000000000000000008451000000000000000474525XXXXXX816400002000515549924             000000000000130884929194302                                                                3000000000008321000000000004161000000000004160PV201661BR 3000000000000000000000000000130000
0121027379750052499380104202600000000000000000072130000000000000000449325XXXXXX664300002000516021814             000000000001111552676195526                                                                3000000000071019000000000035509000000000035510PV201661BR 3000000000000000000000000001111000
01410273797500524993801042026000000000100000000054011800000000000832800000000053179004052026
01410273797500524993801042026000000000200000000054010000000000000830800000000053179202062026
01010273797502304906934104525000009568600104202600067000000005738737000000000000000000000000000000000000000087806000000005650931040520261
0121027379750230490690104202600000000000000000012437000000000000000545368XXXXXX723900002000335409872             0000000000001904YQVQO082105                                                                3000000000012247000000000006124000000000006123PV201661BR 1000000000000000000000000000190000
0121027379750230490690104202600000000000000000010228000000000000000543882XXXXXX142500002000336012992             000000000000156095627084441                                                                3000000000010072000000000005036000000000005036PV201661BR 1000000000000000000000000000156000
0121027379750230490690104202600000000000000000029980000000000000000541759XXXXXX750400002000336160280             000000000000459050231083145                                                                3000000000029521000000000014760000000000014761PV201661BR 1000000000000000000000000000459000
0121027379750230490690104202600000000000000000017109000000000000000541555XXXXXX522300002000336416040             000000000000262053599090042                                                                3000000000016847000000000008424000000000008423PV201661BR 1000000000000000000000000000262000
0121027379750230490690104202600000000000000000006178000000000000000540905XXXXXX402800002000336813762             000000000000095634731093345                                                                3000000000006083000000000003041000000000003042PV201661BR 1000000000000000000000000000095000
0121027379750230490690104202600000000000000000007900000000000000000549211XXXXXX897600002000337411994             000000000000121458313100807                                                                3000000000007779000000000003889000000000003890PV201661BR 1000000000000000000000000000121000
0121027379750230490690104202600000000000000000003343000000000000000521419XXXXXX295300002000337646620             000000000000051079663101311                                                                3000000000003292000000000001646000000000001646PV201661BR 1000000000000000000000000000051000
0121027379750230490690104202600000000000000000006481000000000000000223063XXXXXX620400002000338984118             000000000000099311901110423                                                                3000000000006382000000000003191000000000003191PV201661BR 1000000000000000000000000000099000
0121027379750230490690104202600000000000000000010119000000000000000516292XXXXXX688200002000339261480             000000000000155419850114233                                                                3000000000009964000000000004982000000000004982PV201661BR 1000000000000000000000000000155000
0121027379750230490690104202600000000000000000027529000000000000000559876XXXXXX391000002000341226546             000000000000421817310130249                                                                3000000000027108000000000013554000000000013554PV201661BR 1000000000000000000000000000421000
0121027379750230490690104202600000000000000000009475000000000000000535081XXXXXX661100002000341377610             000000000000145018910131956                                                                3000000000009330000000000004665000000000004665PV201661BR 1000000000000000000000000000145000
0121027379750230490690104202600000000000000000014144000000000000000521419XXXXXX979500002000342896250             000000000000216057523142043                                                                3000000000013928000000000006964000000000006964PV201661BR 1000000000000000000000000000216000
0121027379750230490690104202600000000000000000009599000000000000000515528XXXXXX137000002000345019864             000000000000147447160162620                                                                3000000000009452000000000004726000000000004726PV201661BR 1000000000000000000000000000147000
0121027379750230490690104202600000000000000000005485000000000000000555724XXXXXX595300002000345325048             000000000000084532063163433                                                                3000000000005401000000000002701000000000002700PV201661BR 1000000000000000000000000000084000
0121027379750230490690104202600000000000000000009030000000000000000544274XXXXXX201300002000345707814             000000000000138R12183165803                                                                3000000000008892000000000004446000000000004446PV201661BR 1000000000000000000000000000138000
0121027379750230490690104202600000000000000000006118000000000000000544623XXXXXX212700002000345836054             0000000000000941B7AJB164342                                                                3000000000006024000000000003012000000000003012PV201661BR 1000000000000000000000000000094000
0121027379750230490690104202600000000000000000011798000000000000000223460XXXXXX891700002000345899094             000000000000181T5LJPO165641                                                                3000000000011617000000000005808000000000005809PV201661BR 1000000000000000000000000000181000
0121027379750230490690104202600000000000000000030103000000000000000222982XXXXXX134700002000346428252             000000000000461624245170953                                                                3000000000029642000000000014821000000000014821PV201661BR 1000000000000000000000000000461000
0121027379750230490690104202600000000000000000008404000000000000000528392XXXXXX056800002000346992658             000000000000129PKVOHL173642                                                                3000000000008275000000000004137000000000004138PV201661BR 1000000000000000000000000000129000
0121027379750230490690104202600000000000000000038572000000000000000516292XXXXXX455400002000347059632             000000000000590922679174808                                                                3000000000037982000000000018991000000000018991PV201661BR 1000000000000000000000000000590000
0121027379750230490690104202600000000000000000013544000000000000000540593XXXXXX327700002000347774844             000000000000207913456180649                                                                3000000000013337000000000006668000000000006669PV201661BR 1000000000000000000000000000207000
0121027379750230490690104202600000000000000000388700000000000000000530599XXXXXX571100002000347849940             000000000005947062355181918                                                                3000000000382753000000000191376000000000191377PV201661BR 1000000000000000000000000005947000
0121027379750230490690104202600000000000000000623724000000000000000530599XXXXXX571100002000348367548             000000000009543093655183657                                                                3000000000614181000000000307090000000000307091PV201661BR 1000000000000000000000000009543000
0121027379750230490690104202600000000000000000009000000000000000000547036XXXXXX936100002000348708612             000000000000138414550184145                                                                3000000000008862000000000004431000000000004431PV201661BR 1000000000000000000000000000138000
0121027379750230490690104202600000000000000000004708000000000000000515528XXXXXX137000002000348875198             000000000000072074056185013                                                                3000000000004636000000000002318000000000002318PV201661BR 1000000000000000000000000000072000
0121027379750230490690104202600000000000000000765430000000000000000530599XXXXXX571100002000348889082             000000000011711015992185001                                                                3000000000753719000000000376859000000000376860PV201661BR 1000000000000000000000000011711000
0121027379750230490690104202600000000000000000747400000000000000000530599XXXXXX571100002000349013938             000000000011435033519190234                                                                3000000000735965000000000367982000000000367983PV201661BR 1000000000000000000000000011435000
0121027379750230490690104202600000000000000000747500000000000000000530599XXXXXX571100002000349150828             000000000011437025164185523                                                                3000000000736063000000000368031000000000368032PV201661BR 1000000000000000000000000011437000
0121027379750230490690104202600000000000000000038390000000000000000526255XXXXXX201100002000349945000             000000000000587537688193336                                                                3000000000037803000000000018901000000000018902PV201661BR 1000000000000000000000000000587000
0121027379750230490690104202600000000000000000007446000000000000000544972XXXXXX301000002000502055962             000000000000114R16691085730                                                                3000000000007332000000000003666000000000003666PV201661BR 1000000000000000000000000000114000
0121027379750230490690104202600000000000000000006665000000000000000516292XXXXXX688200002000502372500             000000000000102804243083400                                                                3000000000006563000000000003282000000000003281PV201661BR 1000000000000000000000000000102000
0121027379750230490690104202600000000000000000020044000000000000000532930XXXXXX712000002000503009064             000000000000307R19427091948                                                                3000000000019737000000000009868000000000009869PV201661BR 1000000000000000000000000000307000
0121027379750230490690104202600000000000000000028793000000000000000515522XXXXXX942100002000503407984             000000000000441R10180100247                                                                3000000000028352000000000014176000000000014176PV201661BR 1000000000000000000000000000441000
0121027379750230490690104202600000000000000000007602000000000000000515590XXXXXX650200002000503434076             000000000000116353065093529                                                                3000000000007486000000000003743000000000003743PV201661BR 1000000000000000000000000000116000
0121027379750230490690104202600000000000000000018807000000000000000544274XXXXXX401800002000503475594             000000000000288R08095095834                                                                3000000000018519000000000009260000000000009259PV201661BR 1000000000000000000000000000288000
0121027379750230490690104202600000000000000000016081000000000000000532342XXXXXX601000002000503513740             000000000000246311586100032                                                                3000000000015835000000000007918000000000007917PV201661BR 1000000000000000000000000000246000
0121027379750230490690104202600000000000000000006130000000000000000549743XXXXXX075100002000503719510             000000000000094024328102223                                                                3000000000006036000000000003018000000000003018PV201661BR 1000000000000000000000000000094000
0121027379750230490690104202600000000000000000096362000000000000000544883XXXXXX585800002000503825902             000000000001474016070102914                                                                3000000000094888000000000047444000000000047444PV201661BR 1000000000000000000000000001474000
0121027379750230490690104202600000000000000000005420000000000000000520048XXXXXX404300002000503953970             000000000000083703530103259                                                                3000000000005337000000000002668000000000002669PV201661BR 1000000000000000000000000000083000
0121027379750230490690104202600000000000000000050164000000000000000545368XXXXXX182300002000504054214             000000000000768082681102829                                                                3000000000049396000000000024698000000000024698PV201661BR 1000000000000000000000000000768000
0121027379750230490690104202600000000000000000014515000000000000000545368XXXXXX230800002000504869406             0000000000002224TCFNZ111439                                                                3000000000014293000000000007147000000000007146PV201661BR 1000000000000000000000000000222000
0121027379750230490690104202600000000000000000023857000000000000000515501XXXXXX364800002000505221594             000000000000365219724113815                                                                3000000000023492000000000011746000000000011746PV201661BR 1000000000000000000000000000365000
0121027379750230490690104202600000000000000000013773000000000000000550209XXXXXX874600002000505248384             000000000000211499601112433                                                                3000000000013562000000000006781000000000006781PV201661BR 1000000000000000000000000000211000
0121027379750230490690104202600000000000000000003585000000000000000230026XXXXXX431800002000505324826             000000000000055363320113120                                                                3000000000003530000000000001765000000000001765PV201661BR 1000000000000000000000000000055000
0121027379750230490690104202600000000000000000010000000000000000000541674XXXXXX529800002000507003784             000000000000153817597130014                                                                3000000000009847000000000004923000000000004924PV201661BR 1000000000000000000000000000153000
0121027379750230490690104202600000000000000000005580000000000000000536518XXXXXX015600002000507043500             000000000000085745923130700                                                                3000000000005495000000000002747000000000002748PV201661BR 1000000000000000000000000000085000
0121027379750230490690104202600000000000000000032271000000000000000550209XXXXXX090400002000508708600             000000000000494599335142355                                                                3000000000031777000000000015889000000000015888PV201661BR 1000000000000000000000000000494000
0121027379750230490690104202600000000000000000013127000000000000000516292XXXXXX197600002000508898684             000000000000201880061142918                                                                3000000000012926000000000006463000000000006463PV201661BR 1000000000000000000000000000201000
0121027379750230490690104202600000000000000000024976000000000000000548083XXXXXX535500002000508985666             000000000000382470871144707                                                                3000000000024594000000000012297000000000012297PV201661BR 1000000000000000000000000000382000
0121027379750230490690104202600000000000000000055484000000000000000558120XXXXXX788200002000509020662             000000000000849414264144141                                                                3000000000054635000000000027317000000000027318PV201661BR 1000000000000000000000000000849000
0121027379750230490690104202600000000000000000011996000000000000000512215XXXXXX123900002000509905366             000000000000184JCY4FU153244                                                                3000000000011812000000000005906000000000005906PV201661BR 1000000000000000000000000000184000
0121027379750230490690104202600000000000000000055000000000000000000543882XXXXXX811000002000510437104             000000000000842070026155610                                                                3000000000054158000000000027079000000000027079PV201661BR 1000000000000000000000000000842000
0121027379750230490690104202600000000000000000018179000000000000000530033XXXXXX747700002000510888626             000000000000278074459161359                                                                3000000000017901000000000008951000000000008950PV201661BR 1000000000000000000000000000278000
0121027379750230490690104202600000000000000000092940000000000000000519873XXXXXX011100002000511729688             000000000001422R02864170619                                                                3000000000091518000000000045759000000000045759PV201661BR 1000000000000000000000000001422000
0121027379750230490690104202600000000000000000011140000000000000000553665XXXXXX671400002000511837986             000000000000170012811171122                                                                3000000000010970000000000005485000000000005485PV201661BR 1000000000000000000000000000170000
0121027379750230490690104202600000000000000000010974000000000000000546056XXXXXX240500002000512209638             000000000000168037256172629                                                                3000000000010806000000000005403000000000005403PV201661BR 1000000000000000000000000000168000
0121027379750230490690104202600000000000000000046346000000000000000555507XXXXXX069600002000512611686             000000000000709R09363174512                                                                3000000000045637000000000022818000000000022819PV201661BR 1000000000000000000000000000709000
0121027379750230490690104202600000000000000000005534000000000000000548984XXXXXX264300002000512824776             000000000000085Y3XXAK174056                                                                3000000000005449000000000002724000000000002725PV201661BR 1000000000000000000000000000085000
0121027379750230490690104202600000000000000000022674000000000000000534696XXXXXX843800002000512877798             000000000000347976962175117                                                                3000000000022327000000000011163000000000011164PV201661BR 1000000000000000000000000000347000
0121027379750230490690104202600000000000000000007811000000000000000528392XXXXXX215700002000513237710             0000000000001209DAMTC180545                                                                3000000000007691000000000003846000000000003845PV201661BR 1000000000000000000000000000120000
0121027379750230490690104202600000000000000000023040000000000000000515491XXXXXX133500002000513752280             000000000000353291689181215                                                                3000000000022687000000000011343000000000011344PV201661BR 1000000000000000000000000000353000
0121027379750230490690104202600000000000000000777400000000000000000530599XXXXXX571100002000513789190             000000000011894082139182119                                                                3000000000765506000000000382753000000000382753PV201661BR 1000000000000000000000000011894000
0121027379750230490690104202600000000000000000013168000000000000000537142XXXXXX499800002000513930992             000000000000201551467182400                                                                3000000000012967000000000006483000000000006484PV201661BR 1000000000000000000000000000201000
0121027379750230490690104202600000000000000000388700000000000000000530599XXXXXX571100002000514046478             000000000005947093978182817                                                                3000000000382753000000000191376000000000191377PV201661BR 1000000000000000000000000005947000
0121027379750230490690104202600000000000000000123600000000000000000530599XXXXXX571100002000515158846             000000000001891033374191301                                                                3000000000121709000000000060854000000000060855PV201661BR 1000000000000000000000000001891000
0121027379750230490690104202600000000000000000053210000000000000000516292XXXXXX336800002000515186416             000000000000814811206190906                                                                3000000000052396000000000026198000000000026198PV201661BR 1000000000000000000000000000814000
0121027379750230490690104202600000000000000000003915000000000000000516275XXXXXX091000002000515531974             000000000000060O3MW7K194149                                                                3000000000003855000000000001928000000000001927PV201661BR 1000000000000000000000000000060000
01410273797502304906901042026000000000100000000286938000000000004392100000000282545904052026
01410273797502304906901042026000000000200000000286935700000000004388500000000282547202062026
0061027379750793321853410452500000956860010420260000100000000001034300000000000000000000000000000000000000000011200000000001023106042026E
0081027379750793321850104202600000000000000000010343000000000000000509294XXXXXX7850000000509741428             000000000000112999481152954                                                                3000000000010231PV201661BR E000000000000000000000000000112001
0061027379750793321863410452500000956860010420260001700000000020430400000000000000000000000000000000000000000220500000000020209904052026E
0081027379750793321860104202600000000000000000030374000000000000000655003XXXXXX3201000000342129488             000000000000328733295135347                                                                3000000000030046PV201661BR E000000000000000000000000000328000
0081027379750793321860104202600000000000000000003219000000000000000509097XXXXXX7449000000343968576             000000000000035263233152059                                                                3000000000003184PV201661BR E000000000000000000000000000035000
0081027379750793321860104202600000000000000000001063000000000000000650580XXXXXX4385000000344410332             000000000000011604609154045                                                                3000000000001052PV201661BR E000000000000000000000000000011000
0081027379750793321860104202600000000000000000005202000000000000000655000XXXXXX9322000000346073102             000000000000056632426170323                                                                3000000000005146PV201661BR E000000000000000000000000000056000
0081027379750793321860104202600000000000000000006200000000000000000509464XXXXXX8853000000347664862             000000000000067175829180145                                                                3000000000006133PV201661BR E000000000000000000000000000067000
0081027379750793321860104202600000000000000000001677000000000000000650580XXXXXX4385000000349903702             000000000000018673456193733                                                                3000000000001659PV201661BR E000000000000000000000000000018000
0081027379750793321860104202600000000000000000005763000000000000000650914XXXXXX5552000000503421336             000000000000062635679095355                                                                3000000000005701PV201661BR E000000000000000000000000000062000
0081027379750793321860104202600000000000000000006588000000000000000650486XXXXXX6401000000504060432             000000000000071614470103143                                                                3000000000006517PV201661BR E000000000000000000000000000071000
0081027379750793321860104202600000000000000000003057000000000000000651676XXXXXX2403000000504771344             000000000000033590612111018                                                                3000000000003024PV201661BR E000000000000000000000000000033000
0081027379750793321860104202600000000000000000000287000000000000000655003XXXXXX3137000000504844890             000000000000003587930110703                                                                3000000000000284PV201661BR E000000000000000000000000000003000
0081027379750793321860104202600000000000000000002998000000000000000650518XXXXXX2016000000506227754             000000000000032017125122957                                                                3000000000002966PV201661BR E000000000000000000000000000032000
0081027379750793321860104202600000000000000000032530000000000000000651653XXXXXX0745000000506921024             000000000000351678800124904                                                                3000000000032179PV201661BR E000000000000000000000000000351000
0081027379750793321860104202600000000000000000005160000000000000000650518XXXXXX4056000000507924372             000000000000056020173132955                                                                3000000000005104PV201661BR E000000000000000000000000000056000
0081027379750793321860104202600000000000000000033617000000000000000509097XXXXXX3333000000513584958             000000000000363274409181527                                                                3000000000033254PV201661BR E000000000000000000000000000363000
0081027379750793321860104202600000000000000000004558000000000000000650570XXXXXX5683000000515383700             000000000000049005626192630                                                                3000000000004509PV201661BR E000000000000000000000000000049000
0081027379750793321860104202600000000000000000060517000000000000000509010XXXXXX4050000000515834208             000000000000654007096193041                                                                3000000000059863PV201661BR E000000000000000000000000000654000
0081027379750793321860104202600000000000000000001494000000000000000509097XXXXXX1877000000516408970             000000000000016283148200446                                                                3000000000001478PV201661BR E000000000000000000000000000016000
00610273797508803097734104525000009568600104202600083000000000923411000000000000000000000000000000000000000009971000000000913440040520263
0081027379750880309770104202600000000000000000000712000000000000000474525XXXXXX1089000000335253512             000000000000008142178081304                                                                3000000000000704PV201661BR 3000000000000000000000000000008000
0081027379750880309770104202600000000000000000001843000000000000000422463XXXXXX7010000000335856544             000000000000020050075083232                                                                3000000000001823PV201661BR 3000000000000000000000000000020000
0081027379750880309770104202600000000000000000003889000000000000000470598XXXXXX9548000000336284024             000000000000042T82OJS082742                                                                3000000000003847PV201661BR 3000000000000000000000000000042000
0081027379750880309770104202600000000000000000000523000000000000000425850XXXXXX6462000000336584476             000000000000006104063091040                                                                3000000000000517PV201661BR 3000000000000000000000000000006000
0081027379750880309770104202600000000000000000003590000000000000000485464XXXXXX7388000000337608984             000000000000039328004101749                                                                3000000000003551PV201661BR 3000000000000000000000000000039000
0081027379750880309770104202600000000000000000000299000000000000000428267XXXXXX4046000000338388620             000000000000003041397104508                                                                3000000000000296PV201661BR 3000000000000000000000000000003000
0081027379750880309770104202600000000000000000003983000000000000000498408XXXXXX5465000000338680640             000000000000043585384110630                                                                3000000000003940PV201661BR 3000000000000000000000000000043000
0081027379750880309770104202600000000000000000003759000000000000000422463XXXXXX2046000000339956178             000000000000041098116115626                                                                3000000000003718PV201661BR 3000000000000000000000000000041000
0081027379750880309770104202600000000000000000001059000000000000000498408XXXXXX0281000000340807086             000000000000011190494124707                                                                3000000000001048PV201661BR 3000000000000000000000000000011000
0081027379750880309770104202600000000000000000004944000000000000000400634XXXXXX9844000000340841112             000000000000053099213124843                                                                3000000000004891PV201661BR 3000000000000000000000000000053000
0081027379750880309770104202600000000000000000008344000000000000000498442XXXXXX2522000000341157280             000000000000090325778131015                                                                3000000000008254PV201661BR 3000000000000000000000000000090000
0081027379750880309770104202600000000000000000002878000000000000000459384XXXXXX8278000000342339502             000000000000031266176140825                                                                3000000000002847PV201661BR 3000000000000000000000000000031000
0081027379750880309770104202600000000000000000030281000000000000000425850XXXXXX1144000000342807996             000000000000327425556144255                                                                3000000000029954PV201661BR 3000000000000000000000000000327000
0081027379750880309770104202600000000000000000018322000000000000000441900XXXXXX1658000000342840598             000000000000198705319142303                                                                3000000000018124PV201661BR 3000000000000000000000000000198000
0081027379750880309770104202600000000000000000019142000000000000000498408XXXXXX2967000000342905142             000000000000207754782143319                                                                3000000000018935PV201661BR 3000000000000000000000000000207000
0081027379750880309770104202600000000000000000011053000000000000000417400XXXXXX4312000000342990990             000000000000119LDJJHQ143422                                                                3000000000010934PV201661BR 3000000000000000000000000000119000
0081027379750880309770104202600000000000000000005727000000000000000498431XXXXXX8667000000343785420             000000000000062221582152543                                                                3000000000005665PV201661BR 3000000000000000000000000000062000
0081027379750880309770104202600000000000000000003214000000000000000406669XXXXXX8233000000344673408             000000000000035661558160615                                                                3000000000003179PV201661BR 3000000000000000000000000000035000
0081027379750880309770104202600000000000000000006325000000000000000410863XXXXXX7816000000344875428             000000000000068154771161547                                                                3000000000006257PV201661BR 3000000000000000000000000000068000
0081027379750880309770104202600000000000000000003034000000000000000455183XXXXXX5557000000344912566             000000000000033673613160735                                                                3000000000003001PV201661BR 3000000000000000000000000000033000
0081027379750880309770104202600000000000000000011490000000000000000480632XXXXXX2569000000345110716             000000000000124673491161734                                                                3000000000011366PV201661BR 3000000000000000000000000000124000
0081027379750880309770104202600000000000000000003349000000000000000428267XXXXXX1059000000345876486             000000000000036099053164939                                                                3000000000003313PV201661BR 3000000000000000000000000000036000
0081027379750880309770104202600000000000000000009073000000000000000485464XXXXXX6307000000346191220             000000000000098598003171048                                                                3000000000008975PV201661BR 3000000000000000000000000000098000
0081027379750880309770104202600000000000000000010893000000000000000449325XXXXXX2104000000347017940             000000000000118493160174930                                                                3000000000010775PV201661BR 3000000000000000000000000000118000
0081027379750880309770104202600000000000000000000936000000000000000407505XXXXXX3511000000347817824             000000000000010023171181751                                                                3000000000000926PV201661BR 3000000000000000000000000000010000
0081027379750880309770104202600000000000000000002823000000000000000472958XXXXXX2355000000348464040             0000000000000309K2FU0182640                                                                3000000000002793PV201661BR 3000000000000000000000000000030000
0081027379750880309770104202600000000000000000004578000000000000000417400XXXXXX4600000000348648400             000000000000049BYFI4G183807                                                                3000000000004529PV201661BR 3000000000000000000000000000049000
0081027379750880309770104202600000000000000000004212000000000000000499818XXXXXX5781000000348794350             000000000000045647741184031                                                                3000000000004167PV201661BR 3000000000000000000000000000045000
0081027379750880309770104202600000000000000000017175000000000000000410863XXXXXX2274000000349003996             000000000000185023360190233                                                                3000000000016990PV201661BR 3000000000000000000000000000185000
0081027379750880309770104202600000000000000000000594000000000000000407479XXXXXX5598000000349251952             0000000000000066ZU484191136                                                                3000000000000588PV201661BR 3000000000000000000000000000006000
0081027379750880309770104202600000000000000000012484000000000000000406655XXXXXX8219000000349583748             000000000000135632956192329                                                                3000000000012349PV201661BR 3000000000000000000000000000135000
0081027379750880309770104202600000000000000000003815000000000000000472122XXXXXX7550000000349627952             000000000000041OCXZWC192746                                                                3000000000003774PV201661BR 3000000000000000000000000000041000
0081027379750880309770104202600000000000000000001665000000000000000459384XXXXXX0469000000349880484             000000000000018298744192304                                                                3000000000001647PV201661BR 3000000000000000000000000000018000
0081027379750880309770104202600000000000000000001903000000000000000485464XXXXXX8915000000350342724             000000000000021428507194305                                                                3000000000001882PV201661BR 3000000000000000000000000000021000
0081027379750880309770104202600000000000000000003089000000000000000407838XXXXXX1683000000350607164             000000000000033462161200013                                                                3000000000003056PV201661BR 3000000000000000000000000000033000
0081027379750880309770104202600000000000000000008573000000000000000485464XXXXXX5879000000500013408             000000000000093653948071909                                                                3000000000008480PV201661BR 3000000000000000000000000000093000
0081027379750880309770104202600000000000000000002105000000000000000498401XXXXXX7478000000501585408             000000000000023792076080829                                                                3000000000002082PV201661BR 3000000000000000000000000000023000
0081027379750880309770104202600000000000000000001887000000000000000421379XXXXXX4058000000502103932             000000000000020063497085747                                                                3000000000001867PV201661BR 3000000000000000000000000000020000
0081027379750880309770104202600000000000000000001432000000000000000498453XXXXXX2198000000503339166             000000000000015192783095011                                                                3000000000001417PV201661BR 3000000000000000000000000000015000
0081027379750880309770104202600000000000000000008193000000000000000411049XXXXXX6399000000503754228             000000000000088013419100521                                                                3000000000008105PV201661BR 3000000000000000000000000000088000
0081027379750880309770104202600000000000000000010762000000000000000479569XXXXXX9406000000503818888             000000000000116POF0CQ101501                                                                3000000000010646PV201661BR 3000000000000000000000000000116000
0081027379750880309770104202600000000000000000021151000000000000000407409XXXXXX6430000000504024384             000000000000228081201101333                                                                3000000000020923PV201661BR 3000000000000000000000000000228000
0081027379750880309770104202600000000000000000006179000000000000000406669XXXXXX3301000000504118430             000000000000067625905103258                                                                3000000000006112PV201661BR 3000000000000000000000000000067000
0081027379750880309770104202600000000000000000040189000000000000000498406XXXXXX3955000000504744394             000000000000434539368105806                                                                3000000000039755PV201661BR 3000000000000000000000000000434000
0081027379750880309770104202600000000000000000026862000000000000000421960XXXXXX0766000000504923008             000000000000290324310110958                                                                3000000000026572PV201661BR 3000000000000000000000000000290000
0081027379750880309770104202600000000000000000004737000000000000000415937XXXXXX7353000000505229370             000000000000051107789113632                                                                3000000000004686PV201661BR 3000000000000000000000000000051000
0081027379750880309770104202600000000000000000052373000000000000000415937XXXXXX7353000000505498652             000000000000566624290113302                                                                3000000000051807PV201661BR 3000000000000000000000000000566000
0081027379750880309770104202600000000000000000003756000000000000000417400XXXXXX8184000000505611762             000000000000041O8IHZY120258                                                                3000000000003715PV201661BR 3000000000000000000000000000041000
0081027379750880309770104202600000000000000000001548000000000000000480632XXXXXX1508000000506030446             000000000000017682838120827                                                                3000000000001531PV201661BR 3000000000000000000000000000017000
0081027379750880309770104202600000000000000000003925000000000000000498408XXXXXX2260000000506182950             000000000000042023685121939                                                                3000000000003883PV201661BR 3000000000000000000000000000042000
0081027379750880309770104202600000000000000000000909000000000000000422463XXXXXX1011000000506424790             000000000000010017690122223                                                                3000000000000899PV201661BR 3000000000000000000000000000010000
0081027379750880309770104202600000000000000000007278000000000000000489766XXXXXX0924000000507099162             000000000000079301451130559                                                                3000000000007199PV201661BR 3000000000000000000000000000079000
0081027379750880309770104202600000000000000000004632000000000000000416439XXXXXX2302000000507161524             000000000000050YIGHYP131422                                                                3000000000004582PV201661BR 3000000000000000000000000000050000
0081027379750880309770104202600000000000000000002848000000000000000416439XXXXXX8881000000507213272             000000000000031KQXEVL131255                                                                3000000000002817PV201661BR 3000000000000000000000000000031000
0081027379750880309770104202600000000000000000003056000000000000000478308XXXXXX1066000000507328148             000000000000033NNCG5T130128                                                                3000000000003023PV201661BR 3000000000000000000000000000033000
0081027379750880309770104202600000000000000000012401000000000000000406655XXXXXX7312000000508138520             000000000000134663619134635                                                                3000000000012267PV201661BR 3000000000000000000000000000134000
0081027379750880309770104202600000000000000000016052000000000000000422007XXXXXX6647000000508570014             000000000000173085017140650                                                                3000000000015879PV201661BR 3000000000000000000000000000173000
0081027379750880309770104202600000000000000000011496000000000000000477587XXXXXX3487000000510598410             000000000000124Z0DEQB160322                                                                3000000000011372PV201661BR 3000000000000000000000000000124000
0081027379750880309770104202600000000000000000006890000000000000000474525XXXXXX3702000000511464258             000000000000074179491163421                                                                3000000000006816PV201661BR 3000000000000000000000000000074000
0081027379750880309770104202600000000000000000003630000000000000000444456XXXXXX5049000000511524168             000000000000039394018163627                                                                3000000000003591PV201661BR 3000000000000000000000000000039000
0081027379750880309770104202600000000000000000006304000000000000000416439XXXXXX7817000000511657050             000000000000068GVQJBD165529                                                                3000000000006236PV201661BR 3000000000000000000000000000068000
0081027379750880309770104202600000000000000000003894000000000000000421958XXXXXX7360000000512229718             000000000000042015590172714                                                                3000000000003852PV201661BR 3000000000000000000000000000042000
0081027379750880309770104202600000000000000000002360000000000000000422463XXXXXX6044000000512234618             000000000000025020488171645                                                                3000000000002335PV201661BR 3000000000000000000000000000025000
0081027379750880309770104202600000000000000000002080000000000000000407903XXXXXX6310000000512708490             000000000000022096978173534                                                                3000000000002058PV201661BR 3000000000000000000000000000022000
0081027379750880309770104202600000000000000000000619000000000000000453067XXXXXX6063000000513165970             000000000000007905283180648                                                                3000000000000612PV201661BR 3000000000000000000000000000007000
0081027379750880309770104202600000000000000000034144000000000000000410425XXXXXX8984000000513278014             000000000000369600713175006                                                                3000000000033775PV201661BR 3000000000000000000000000000369000
0081027379750880309770104202600000000000000000005242000000000000000498407XXXXXX7170000000513915188             000000000000057041951182517                                                                3000000000005185PV201661BR 3000000000000000000000000000057000
0081027379750880309770104202600000000000000000031644000000000000000498408XXXXXX0279000000514167990             000000000000342154877184602                                                                3000000000031302PV201661BR 3000000000000000000000000000342000
0081027379750880309770104202600000000000000000005370000000000000000489766XXXXXX2189000000514256272             000000000000058073492183057                                                                3000000000005312PV201661BR 3000000000000000000000000000058000
0081027379750880309770104202600000000000000000114202000000000000000498408XXXXXX0279000000514719962             000000000001233249036190432                                                                3000000000112969PV201661BR 3000000000000000000000000001233000
0081027379750880309770104202600000000000000000019065000000000000000485464XXXXXX2444000000514731416             000000000000206225398185947                                                                3000000000018859PV201661BR 3000000000000000000000000000206000
0081027379750880309770104202600000000000000000023585000000000000000489766XXXXXX4374000000514776564             000000000000255186177185205                                                                3000000000023330PV201661BR 3000000000000000000000000000255000
0081027379750880309770104202600000000000000000014687000000000000000498453XXXXXX5767000000514800770             000000000000159196290185401                                                                3000000000014528PV201661BR 3000000000000000000000000000159000
0081027379750880309770104202600000000000000000014037000000000000000428268XXXXXX7094000000515518948             000000000000152014514193006                                                                3000000000013885PV201661BR 3000000000000000000000000000152000
0081027379750880309770104202600000000000000000092560000000000000000443435XXXXXX0568000000515531874             000000000001000031169194046                                                                3000000000091560PV201661BR 3000000000000000000000000001000000
0081027379750880309770104202600000000000000000003415000000000000000453211XXXXXX2379000000515665382             000000000000037601756194016                                                                3000000000003378PV201661BR 3000000000000000000000000000037000
0081027379750880309770104202600000000000000000002233000000000000000478308XXXXXX3266000000515989410             000000000000024013246194754                                                                3000000000002209PV201661BR 3000000000000000000000000000024000
0081027379750880309770104202600000000000000000018088000000000000000498406XXXXXX9076000000516001744             000000000000195468793195238                                                                3000000000017893PV201661BR 3000000000000000000000000000195000
0081027379750880309770104202600000000000000000002748000000000000000498453XXXXXX8658000000516012074             000000000000030393393193509                                                                3000000000002718PV201661BR 3000000000000000000000000000030000
0081027379750880309770104202600000000000000000016387000000000000000417400XXXXXX6367000000516027616             000000000000177L7KRQR195712                                                                3000000000016210PV201661BR 3000000000000000000000000000177000
0081027379750880309770104202600000000000000000015714000000000000000417400XXXXXX1460000000516432090             000000000000170AHS3IT195540                                                                3000000000015544PV201661BR 3000000000000000000000000000170000
0081027379750880309770104202600000000000000000007348000000000000000422463XXXXXX6119000000516438942             000000000000079034284200650                                                                3000000000007269PV201661BR 3000000000000000000000000000079000
0081027379750880309770104202600000000000000000003821000000000000000427167XXXXXX8021000000516576526             000000000000041039092201600                                                                3000000000003780PV201661BR 3000000000000000000000000000041000
0101027379750882497623410452500000956860010420260000100000000016767000000000000000000000000000000000000000000256500000000016510504052026X
0121027379750882497620104202600000000000000000167670000000000000000374769XXXXX9365 00003000508354660             000000000002565690680135905                                                                3000000000165105000000000055035000000000055035PV201661BR X000000000000000000000000002565000
01410273797508824976201042026000000000100000000005589000000000000085500000000005503504052026
01410273797508824976201042026000000000200000000005589000000000000085500000000005503502062026
01410273797508824976201042026000000000300000000005589000000000000085500000000005503502072026
0101027379750915499613410452500000956860010420260000600000000009203000000000000000000000000000000000000000000141700000000009061304052026E
0121027379750915499610104202600000000000000000014109000000000000000650570XXXXXX220400002000346057590             000000000000217887514170752                                                                3000000000013892000000000006946000000000006946PV201661BR E000000000000000000000000000217000
0121027379750915499610104202600000000000000000007904000000000000000650518XXXXXX101200002000346976112             000000000000122032377173108                                                                3000000000007782000000000003891000000000003891PV201661BR E000000000000000000000000000122000
0121027379750915499610104202600000000000000000013849000000000000000655003XXXXXX771000002000347027426             000000000000213920986174419                                                                3000000000013636000000000006818000000000006818PV201661BR E000000000000000000000000000213000
0121027379750915499610104202600000000000000000010353000000000000000655003XXXXXX215600002000503381350             000000000000159531934095331                                                                3000000000010194000000000005097000000000005097PV201661BR E000000000000000000000000000159000
0121027379750915499610104202600000000000000000017323000000000000000650486XXXXXX228800002000509806382             000000000000267680163151800                                                                3000000000017056000000000008528000000000008528PV201661BR E000000000000000000000000000267000
0121027379750915499610104202600000000000000000028492000000000000000650914XXXXXX080300002000515516536             000000000000439663260192631                                                                3000000000028053000000000014026000000000014027PV201661BR E000000000000000000000000000439000
01410273797509154996101042026000000000100000000004601700000000000071100000000004530604052026
01410273797509154996101042026000000000200000000004601300000000000070600000000004530702062026
00610273797509743262734104525000009568600104202600109000000002897405000000000000000000000000000000000000000031289000000002866116040520261
0081027379750974326270104202600000000000000000011441000000000000000230650XXXXXX0874000000333121614             000000000000124R99438072905                                                                3000000000011317PV201661BR 1000000000000000000000000000124000
0081027379750974326270104202600000000000000000003332000000000000000526326XXXXXX7732000000333551438             000000000000036320021072301                                                                3000000000003296PV201661BR 1000000000000000000000000000036000
0081027379750974326270104202600000000000000000009284000000000000000559529XXXXXX2583000000336427786             000000000000100R87515092914                                                                3000000000009184PV201661BR 1000000000000000000000000000100000
0081027379750974326270104202600000000000000000000899000000000000000515470XXXXXX4470000000336451240             000000000000010R52416092228                                                                3000000000000889PV201661BR 1000000000000000000000000000010000
0081027379750974326270104202600000000000000000014515000000000000000543142XXXXXX8078000000336650272             000000000000157R31115090742                                                                3000000000014358PV201661BR 1000000000000000000000000000157000
0081027379750974326270104202600000000000000000004714000000000000000515467XXXXXX1477000000337337982             000000000000051073754100741                                                                3000000000004663PV201661BR 1000000000000000000000000000051000
0081027379750974326270104202600000000000000000036736000000000000000535569XXXXXX3884000000337528598             000000000000397236359101101                                                                3000000000036339PV201661BR 1000000000000000000000000000397000
0081027379750974326270104202600000000000000000006424000000000000000548293XXXXXX3375000000338064616             000000000000069685462103853                                                                3000000000006355PV201661BR 1000000000000000000000000000069000
0081027379750974326270104202600000000000000000008530000000000000000530780XXXXXX3360000000338128116             000000000000092058499103333                                                                3000000000008438PV201661BR 1000000000000000000000000000092000
0081027379750974326270104202600000000000000000003014000000000000000528392XXXXXX9913000000338144460             000000000000033084882103821                                                                3000000000002981PV201661BR 1000000000000000000000000000033000
0081027379750974326270104202600000000000000000017071000000000000000555507XXXXXX9879000000338262446             000000000000184R65585103952                                                                3000000000016887PV201661BR 1000000000000000000000000000184000
0081027379750974326270104202600000000000000000010300000000000000000530049XXXXXX7056000000338577932             000000000000111UMRZ2K111819                                                                3000000000010189PV201661BR 1000000000000000000000000000111000
0081027379750974326270104202600000000000000000011622000000000000000545915XXXXXX0260000000339014698             000000000000126039615111342                                                                3000000000011496PV201661BR 1000000000000000000000000000126000
0081027379750974326270104202600000000000000000004031000000000000000537274XXXXXX5488000000339326780             000000000000044009009113457                                                                3000000000003987PV201661BR 1000000000000000000000000000044000
0081027379750974326270104202600000000000000000015730000000000000000555507XXXXXX6005000000339479304             000000000000170R69456114455                                                                3000000000015560PV201661BR 1000000000000000000000000000170000
0081027379750974326270104202600000000000000000003189000000000000000545368XXXXXX9165000000339812080             000000000000034YHECQW115111                                                                3000000000003155PV201661BR 1000000000000000000000000000034000
0081027379750974326270104202600000000000000000003486000000000000000515463XXXXXX9288000000339894652             000000000000038839988120003                                                                3000000000003448PV201661BR 1000000000000000000000000000038000
0081027379750974326270104202600000000000000000018660000000000000000553665XXXXXX6066000000339970894             000000000000202049123120655                                                                3000000000018458PV201661BR 1000000000000000000000000000202000
0081027379750974326270104202600000000000000000003193000000000000000528052XXXXXX1411000000340048396             000000000000034135061121349                                                                3000000000003159PV201661BR 1000000000000000000000000000034000
0081027379750974326270104202600000000000000000009473000000000000000542661XXXXXX5367000000342367686             000000000000102456265141259                                                                3000000000009371PV201661BR 1000000000000000000000000000102000
0081027379750974326270104202600000000000000000017763000000000000000559876XXXXXX0883000000342424408             000000000000192465369135735                                                                3000000000017571PV201661BR 1000000000000000000000000000192000
0081027379750974326270104202600000000000000000000728000000000000000515520XXXXXX5593000000342719312             000000000000008048474143016                                                                3000000000000720PV201661BR 1000000000000000000000000000008000
0081027379750974326270104202600000000000000000003179000000000000000223656XXXXXX5021000000342899840             000000000000034048687144340                                                                3000000000003145PV201661BR 1000000000000000000000000000034000
0081027379750974326270104202600000000000000000073069000000000000000554612XXXXXX7860000000343020762             000000000000789325072143249                                                                3000000000072280PV201661BR 1000000000000000000000000000789000
0081027379750974326270104202600000000000000000008266000000000000000542305XXXXXX5322000000343662646             000000000000089SZXM5A150948                                                                3000000000008177PV201661BR 1000000000000000000000000000089000
0081027379750974326270104202600000000000000000002020000000000000000515528XXXXXX8848000000344149280             000000000000022026460153905                                                                3000000000001998PV201661BR 1000000000000000000000000000022000
0081027379750974326270104202600000000000000000011340000000000000000550209XXXXXX8181000000344676730             000000000000122262678155809                                                                3000000000011218PV201661BR 1000000000000000000000000000122000
0081027379750974326270104202600000000000000000010867000000000000000544432XXXXXX9218000000344847058             000000000000117IOA4OT161111                                                                3000000000010750PV201661BR 1000000000000000000000000000117000
0081027379750974326270104202600000000000000000259000000000000000000515464XXXXXX2942000000345161392             000000000002797021267163016                                                                3000000000256203PV201661BR 1000000000000000000000000002797000
0081027379750974326270104202600000000000000000010092000000000000000515494XXXXXX3526000000345180008             000000000000109R42874161422                                                                3000000000009983PV201661BR 1000000000000000000000000000109000
0081027379750974326270104202600000000000000000001049000000000000000521408XXXXXX9176000000345330512             000000000000011GVBBZB162815                                                                3000000000001038PV201661BR 1000000000000000000000000000011000
0081027379750974326270104202600000000000000000005822000000000000000531681XXXXXX0279000000345365990             000000000000063MUY3GZ164611                                                                3000000000005759PV201661BR 1000000000000000000000000000063000
0081027379750974326270104202600000000000000000006444000000000000000512215XXXXXX8208000000345366696             000000000000070081580163147                                                                3000000000006374PV201661BR 1000000000000000000000000000070000
0081027379750974326270104202600000000000000000001197000000000000000552640XXXXXX2935000000345380428             000000000000013071607162933                                                                3000000000001184PV201661BR 1000000000000000000000000000013000
0081027379750974326270104202600000000000000000000399000000000000000550209XXXXXX7472000000345393814             000000000000004565438164544                                                                3000000000000395PV201661BR 1000000000000000000000000000004000
0081027379750974326270104202600000000000000000001052000000000000000550209XXXXXX5398000000345507568             000000000000011880878164619                                                                3000000000001041PV201661BR 1000000000000000000000000000011000
0081027379750974326270104202600000000000000000008418000000000000000546454XXXXXX7499000000345551550             000000000000091539970164740                                                                3000000000008327PV201661BR 1000000000000000000000000000091000
0081027379750974326270104202600000000000000000002787000000000000000223460XXXXXX8917000000346041422             0000000000000307PH41H170537                                                                3000000000002757PV201661BR 1000000000000000000000000000030000
0081027379750974326270104202600000000000000000001805000000000000000544918XXXXXX9067000000346106634             000000000000019857999165927                                                                3000000000001786PV201661BR 1000000000000000000000000000019000
0081027379750974326270104202600000000000000000004941000000000000000515590XXXXXX0637000000346212964             000000000000053092362170923                                                                3000000000004888PV201661BR 1000000000000000000000000000053000
0081027379750974326270104202600000000000000000004409000000000000000516292XXXXXX4774000000346438464             000000000000048248009171248                                                                3000000000004361PV201661BR 1000000000000000000000000000048000
0081027379750974326270104202600000000000000000024537000000000000000532342XXXXXX9084000000346440258             000000000000265553565171017                                                                3000000000024272PV201661BR 1000000000000000000000000000265000
0081027379750974326270104202600000000000000000027660000000000000000536487XXXXXX3729000000346454538             000000000000299R49014171417                                                                3000000000027361PV201661BR 1000000000000000000000000000299000
0081027379750974326270104202600000000000000000008811000000000000000552236XXXXXX2981000000346736496             000000000000095038056172612                                                                3000000000008716PV201661BR 1000000000000000000000000000095000
0081027379750974326270104202600000000000000000148902000000000000000554612XXXXXX8599000000346966306             000000000001608324886173247                                                                3000000000147294PV201661BR 1000000000000000000000000001608000
0081027379750974326270104202600000000000000000002000000000000000000530599XXXXXX0910000000347487296             000000000000022044277180018                                                                3000000000001978PV201661BR 1000000000000000000000000000022000
0081027379750974326270104202600000000000000000003046000000000000000545434XXXXXX0401000000347805410             000000000000033292008181334                                                                3000000000003013PV201661BR 1000000000000000000000000000033000
0081027379750974326270104202600000000000000000003757000000000000000553636XXXXXX4827000000348072650             000000000000041IY7TLR181519                                                                3000000000003716PV201661BR 1000000000000000000000000000041000
0081027379750974326270104202600000000000000000019083000000000000000515494XXXXXX5016000000348196580             000000000000206R82213182200                                                                3000000000018877PV201661BR 1000000000000000000000000000206000
0081027379750974326270104202600000000000000000002216000000000000000530033XXXXXX2103000000348472200             000000000000024082567182824                                                                3000000000002192PV201661BR 1000000000000000000000000000024000
0081027379750974326270104202600000000000000000003800000000000000000223656XXXXXX6025000000348667910             000000000000041070205185201                                                                3000000000003759PV201661BR 1000000000000000000000000000041000
0081027379750974326270104202600000000000000000006535000000000000000550209XXXXXX1213000000349014954             000000000000071046293185307                                                                3000000000006464PV201661BR 1000000000000000000000000000071000
0081027379750974326270104202600000000000000000030000000000000000000550209XXXXXX6217000000349128088             000000000000324420974184755                                                                3000000000029676PV201661BR 1000000000000000000000000000324000
0081027379750974326270104202600000000000000000022024000000000000000523431XXXXXX1538000000349154626             000000000000238035971185352                                                                3000000000021786PV201661BR 1000000000000000000000000000238000
0081027379750974326270104202600000000000000000012063000000000000000545434XXXXXX4561000000349259668             000000000000130743180190913                                                                3000000000011933PV201661BR 1000000000000000000000000000130000
0081027379750974326270104202600000000000000000000300000000000000000549205XXXXXX0410000000349461254             000000000000003403235191222                                                                3000000000000297PV201661BR 1000000000000000000000000000003000
0081027379750974326270104202600000000000000000150000000000000000000515464XXXXXX2942000000349691062             000000000001620060840192300                                                                3000000000148380PV201661BR 1000000000000000000000000001620000
0081027379750974326270104202600000000000000000003932000000000000000516292XXXXXX6077000000350000174             000000000000042316736192603                                                                3000000000003890PV201661BR 1000000000000000000000000000042000
0081027379750974326270104202600000000000000000005865000000000000000234013XXXXXX2980000000502127534             000000000000063B41347085107                                                                3000000000005802PV201661BR 1000000000000000000000000000063000
0081027379750974326270104202600000000000000000015470000000000000000534696XXXXXX0302000000502673546             000000000000167735446092419                                                                3000000000015303PV201661BR 1000000000000000000000000000167000
0081027379750974326270104202600000000000000000002778000000000000000516292XXXXXX0916000000503066378             000000000000030928107090951                                                                3000000000002748PV201661BR 1000000000000000000000000000030000
0081027379750974326270104202600000000000000000003100000000000000000550209XXXXXX3554000000503791744             000000000000033806082102626                                                                3000000000003067PV201661BR 1000000000000000000000000000033000
0081027379750974326270104202600000000000000000008162000000000000000530780XXXXXX3360000000503903930             000000000000088021003103143                                                                3000000000008074PV201661BR 1000000000000000000000000000088000
0081027379750974326270104202600000000000000000002090000000000000000550209XXXXXX7943000000504096202             000000000000023103108102944                                                                3000000000002067PV201661BR 1000000000000000000000000000023000
0081027379750974326270104202600000000000000000000999000000000000000552640XXXXXX9069000000504163520             000000000000011091307104751                                                                3000000000000988PV201661BR 1000000000000000000000000000011000
0081027379750974326270104202600000000000000000163687000000000000000534696XXXXXX6210000000504207904             000000000001768952242105543                                                                3000000000161919PV201661BR 1000000000000000000000000001768000
0081027379750974326270104202600000000000000000042353000000000000000559532XXXXXX1192000000504473968             000000000000457952807110030                                                                3000000000041896PV201661BR 1000000000000000000000000000457000
0081027379750974326270104202600000000000000000004821000000000000000515463XXXXXX9077000000504784174             000000000000052954021105608                                                                3000000000004769PV201661BR 1000000000000000000000000000052000
0081027379750974326270104202600000000000000000007380000000000000000516292XXXXXX9217000000504823858             000000000000080940732111836                                                                3000000000007300PV201661BR 1000000000000000000000000000080000
0081027379750974326270104202600000000000000000001099000000000000000515743XXXXXX8503000000504912264             000000000000012043571110017                                                                3000000000001087PV201661BR 1000000000000000000000000000012000
0081027379750974326270104202600000000000000000002268000000000000000523431XXXXXX0777000000504922546             000000000000024060700110415                                                                3000000000002244PV201661BR 1000000000000000000000000000024000
0081027379750974326270104202600000000000000000002198000000000000000535569XXXXXX2337000000505157406             000000000000024711797113446                                                                3000000000002174PV201661BR 1000000000000000000000000000024000
0081027379750974326270104202600000000000000000025690000000000000000545368XXXXXX9370000000505571930             000000000000277AN5C9S120117                                                                3000000000025413PV201661BR 1000000000000000000000000000277000
0081027379750974326270104202600000000000000000159589000000000000000515464XXXXXX2942000000505866154             000000000001724071140114959                                                                3000000000157865PV201661BR 1000000000000000000000000001724000
0081027379750974326270104202600000000000000000582650000000000000000515464XXXXXX2942000000506074002             000000000006293048671120556                                                                3000000000576357PV201661BR 1000000000000000000000000006293000
0081027379750974326270104202600000000000000000027980000000000000000548083XXXXXX5355000000507383298             000000000000302160771131606                                                                3000000000027678PV201661BR 1000000000000000000000000000302000
0081027379750974326270104202600000000000000000000349000000000000000528392XXXXXX9300000000507487280             000000000000004DKPMPS132009                                                                3000000000000345PV201661BR 1000000000000000000000000000004000
0081027379750974326270104202600000000000000000007895000000000000000545368XXXXXX6720000000507814288             000000000000085024230132602                                                                3000000000007810PV201661BR 1000000000000000000000000000085000
0081027379750974326270104202600000000000000000001279000000000000000550209XXXXXX7472000000508718372             000000000000014180802142051                                                                3000000000001265PV201661BR 1000000000000000000000000000014000
0081027379750974326270104202600000000000000000009667000000000000000515518XXXXXX1302000000509322514             000000000000104477357145451                                                                3000000000009563PV201661BR 1000000000000000000000000000104000
0081027379750974326270104202600000000000000000001696000000000000000233026XXXXXX4936000000509373508             000000000000018JEXUMD150944                                                                3000000000001678PV201661BR 1000000000000000000000000000018000
0081027379750974326270104202600000000000000000025564000000000000000518512XXXXXX7382000000509696392             000000000000276R44948151355                                                                3000000000025288PV201661BR 1000000000000000000000000000276000
0081027379750974326270104202600000000000000000019043000000000000000550209XXXXXX2496000000510234514             000000000000206450394154416                                                                3000000000018837PV201661BR 1000000000000000000000000000206000
0081027379750974326270104202600000000000000000006586000000000000000528392XXXXXX5001000000510346582             000000000000071G9C5KP154713                                                                3000000000006515PV201661BR 1000000000000000000000000000071000
0081027379750974326270104202600000000000000000000743000000000000000516292XXXXXX5163000000510684836             000000000000008387828161204                                                                3000000000000735PV201661BR 1000000000000000000000000000008000
0081027379750974326270104202600000000000000000002810000000000000000541187XXXXXX7650000000510749632             000000000000030046555162213                                                                3000000000002780PV201661BR 1000000000000000000000000000030000
0081027379750974326270104202600000000000000000016242000000000000000528392XXXXXX9300000000510873410             0000000000001755YG9G2162243                                                                3000000000016067PV201661BR 1000000000000000000000000000175000
0081027379750974326270104202600000000000000000388950000000000000000515464XXXXXX2942000000511446090             000000000004201082407163124                                                                3000000000384749PV201661BR 1000000000000000000000000004201000
0081027379750974326270104202600000000000000000000976000000000000000516292XXXXXX9432000000511833948             000000000000011877591170955                                                                3000000000000965PV201661BR 1000000000000000000000000000011000
0081027379750974326270104202600000000000000000000824000000000000000230650XXXXXX6083000000511892358             000000000000009R13419165504                                                                3000000000000815PV201661BR 1000000000000000000000000000009000
0081027379750974326270104202600000000000000000018470000000000000000544624XXXXXX6769000000511955318             000000000000199082439170709                                                                3000000000018271PV201661BR 1000000000000000000000000000199000
0081027379750974326270104202600000000000000000006115000000000000000550209XXXXXX8572000000511957434             000000000000066601699170836                                                                3000000000006049PV201661BR 1000000000000000000000000000066000
0081027379750974326270104202600000000000000000001607000000000000000516292XXXXXX4054000000512808624             000000000000017661675173855                                                                3000000000001590PV201661BR 1000000000000000000000000000017000
0081027379750974326270104202600000000000000000001867000000000000000546454XXXXXX6291000000513255648             000000000000020585934180557                                                                3000000000001847PV201661BR 1000000000000000000000000000020000
0081027379750974326270104202600000000000000000002193000000000000000523818XXXXXX6144000000513594180             000000000000024159B85180750                                                                3000000000002169PV201661BR 1000000000000000000000000000024000
0081027379750974326270104202600000000000000000002690000000000000000540593XXXXXX5589000000513657008             000000000000029638301181722                                                                3000000000002661PV201661BR 1000000000000000000000000000029000
0081027379750974326270104202600000000000000000007842000000000000000544635XXXXXX9997000000513702462             000000000000085560936181308                                                                3000000000007757PV201661BR 1000000000000000000000000000085000
0081027379750974326270104202600000000000000000010647000000000000000545368XXXXXX8908000000513869938             000000000000115067773183004                                                                3000000000010532PV201661BR 1000000000000000000000000000115000
0081027379750974326270104202600000000000000000003158000000000000000550209XXXXXX8309000000514132986             000000000000034942599183605                                                                3000000000003124PV201661BR 1000000000000000000000000000034000
0081027379750974326270104202600000000000000000001498000000000000000550209XXXXXX2118000000514172848             000000000000016054873183513                                                                3000000000001482PV201661BR 1000000000000000000000000000016000
0081027379750974326270104202600000000000000000005581000000000000000530033XXXXXX6843000000514213232             000000000000060059578183919                                                                3000000000005521PV201661BR 1000000000000000000000000000060000
0081027379750974326270104202600000000000000000001859000000000000000549743XXXXXX7759000000514222946             000000000000020863658183655                                                                3000000000001839PV201661BR 1000000000000000000000000000020000
0081027379750974326270104202600000000000000000001158000000000000000545368XXXXXX9953000000514903086             000000000000013QLBMSG190008                                                                3000000000001145PV201661BR 1000000000000000000000000000013000
0081027379750974326270104202600000000000000000000100000000000000000549205XXXXXX0410000000514960520             000000000000001789082185626                                                                3000000000000099PV201661BR 1000000000000000000000000000001000
0081027379750974326270104202600000000000000000138654000000000000000512215XXXXXX8208000000515344654             000000000001497078398191512                                                                3000000000137157PV201661BR 1000000000000000000000000001497000
0081027379750974326270104202600000000000000000041960000000000000000512215XXXXXX8208000000515520086             000000000000453054127192139                                                                3000000000041507PV201661BR 1000000000000000000000000000453000
0081027379750974326270104202600000000000000000002390000000000000000550209XXXXXX4287000000515674782             000000000000026320244193317                                                                3000000000002364PV201661BR 1000000000000000000000000000026000
0081027379750974326270104202600000000000000000001614000000000000000550209XXXXXX3554000000515808332             000000000000017692811193039                                                                3000000000001597PV201661BR 1000000000000000000000000000017000
0081027379750974326270104202600000000000000000008242000000000000000550209XXXXXX7325000000516179382             000000000000089140195200327                                                                3000000000008153PV201661BR 1000000000000000000000000000089000
026102737762000000011114118000000000000000000000000000004035463000000007078655000000000000000000000000000000000000000152001000000010962117000000000000000000000000000000000325
0280001000346102737762000000011114118000000000000000000000000000004035463000000007078655000000000000000000000000000000000000000152001000000010962117000000000000000000000000000000000325
